{
  "_format": "hh-sol-artifact-1",
  "contractName": "ChainNFT",
  "sourceName": "contracts/ChainNFT.sol",
  "abi": [
    {
      "inputs": [],
      "stateMutability": "nonpayable",
      "type": "constructor"
    },
    {
      "inputs": [
        {
          "internalType": "address",
          "name": "sender",
          "type": "address"
        },
        {
          "internalType": "uint256",
          "name": "tokenId",
          "type": "uint256"
        },
        {
          "internalType": "address",
          "name": "owner",
          "type": "address"
        }
      ],
      "name": "ERC721IncorrectOwner",
      "type": "error"
    },
    {
      "inputs": [
        {
          "internalType": "address",
          "name": "operator",
          "type": "address"
        },
        {
          "internalType": "uint256",
          "name": "tokenId",
          "type": "uint256"
        }
      ],
      "name": "ERC721InsufficientApproval",
      "type": "error"
    },
    {
      "inputs": [
        {
          "internalType": "address",
          "name": "approver",
          "type": "address"
        }
      ],
      "name": "ERC721InvalidApprover",
      "type": "error"
    },
    {
      "inputs": [
        {
          "internalType": "address",
          "name": "operator",
          "type": "address"
        }
      ],
      "name": "ERC721InvalidOperator",
      "type": "error"
    },
    {
      "inputs": [
        {
          "internalType": "address",
          "name": "owner",
          "type": "address"
        }
      ],
      "name": "ERC721InvalidOwner",
      "type": "error"
    },
    {
      "inputs": [
        {
          "internalType": "address",
          "name": "receiver",
          "type": "address"
        }
      ],
      "name": "ERC721InvalidReceiver",
      "type": "error"
    },
    {
      "inputs": [
        {
          "internalType": "address",
          "name": "sender",
          "type": "address"
        }
      ],
      "name": "ERC721InvalidSender",
      "type": "error"
    },
    {
      "inputs": [
        {
          "internalType": "uint256",
          "name": "tokenId",
          "type": "uint256"
        }
      ],
      "name": "ERC721NonexistentToken",
      "type": "error"
    },
    {
      "inputs": [
        {
          "internalType": "address",
          "name": "owner",
          "type": "address"
        }
      ],
      "name": "OwnableInvalidOwner",
      "type": "error"
    },
    {
      "inputs": [
        {
          "internalType": "address",
          "name": "account",
          "type": "address"
        }
      ],
      "name": "OwnableUnauthorizedAccount",
      "type": "error"
    },
    {
      "anonymous": false,
      "inputs": [
        {
          "indexed": true,
          "internalType": "address",
          "name": "owner",
          "type": "address"
        },
        {
          "indexed": true,
          "internalType": "address",
          "name": "approved",
          "type": "address"
        },
        {
          "indexed": true,
          "internalType": "uint256",
          "name": "tokenId",
          "type": "uint256"
        }
      ],
      "name": "Approval",
      "type": "event"
    },
    {
      "anonymous": false,
      "inputs": [
        {
          "indexed": true,
          "internalType": "address",
          "name": "owner",
          "type": "address"
        },
        {
          "indexed": true,
          "internalType": "address",
          "name": "operator",
          "type": "address"
        },
        {
          "indexed": false,
          "internalType": "bool",
          "name": "approved",
          "type": "bool"
        }
      ],
      "name": "ApprovalForAll",
      "type": "event"
    },
    {
      "anonymous": false,
      "inputs": [
        {
          "indexed": false,
          "internalType": "uint256",
          "name": "_fromTokenId",
          "type": "uint256"
        },
        {
          "indexed": false,
          "internalType": "uint256",
          "name": "_toTokenId",
          "type": "uint256"
        }
      ],
      "name": "BatchMetadataUpdate",
      "type": "event"
    },
    {
      "anonymous": false,
      "inputs": [
        {
          "indexed": false,
          "internalType": "uint256",
          "name": "_tokenId",
          "type": "uint256"
        }
      ],
      "name": "MetadataUpdate",
      "type": "event"
    },
    {
      "anonymous": false,
      "inputs": [
        {
          "indexed": false,
          "internalType": "uint256",
          "name": "tokenId",
          "type": "uint256"
        }
      ],
      "name": "Minted",
      "type": "event"
    },
    {
      "anonymous": false,
      "inputs": [
        {
          "indexed": true,
          "internalType": "address",
          "name": "previousOwner",
          "type": "address"
        },
        {
          "indexed": true,
          "internalType": "address",
          "name": "newOwner",
          "type": "address"
        }
      ],
      "name": "OwnershipTransferred",
      "type": "event"
    },
    {
      "anonymous": false,
      "inputs": [
        {
          "indexed": true,
          "internalType": "address",
          "name": "from",
          "type": "address"
        },
        {
          "indexed": true,
          "internalType": "address",
          "name": "to",
          "type": "address"
        },
        {
          "indexed": true,
          "internalType": "uint256",
          "name": "tokenId",
          "type": "uint256"
        }
      ],
      "name": "Transfer",
      "type": "event"
    },
    {
      "inputs": [
        {
          "internalType": "address",
          "name": "to",
          "type": "address"
        },
        {
          "internalType": "uint256",
          "name": "tokenId",
          "type": "uint256"
        }
      ],
      "name": "approve",
      "outputs": [],
      "stateMutability": "nonpayable",
      "type": "function"
    },
    {
      "inputs": [
        {
          "internalType": "address",
          "name": "owner",
          "type": "address"
        }
      ],
      "name": "balanceOf",
      "outputs": [
        {
          "internalType": "uint256",
          "name": "",
          "type": "uint256"
        }
      ],
      "stateMutability": "view",
      "type": "function"
    },
    {
      "inputs": [
        {
          "internalType": "string",
          "name": "imageURI",
          "type": "string"
        }
      ],
      "name": "formatTokenURI",
      "outputs": [
        {
          "internalType": "string",
          "name": "",
          "type": "string"
        }
      ],
      "stateMutability": "pure",
      "type": "function"
    },
    {
      "inputs": [
        {
          "internalType": "uint256",
          "name": "tokenId",
          "type": "uint256"
        }
      ],
      "name": "getApproved",
      "outputs": [
        {
          "internalType": "address",
          "name": "",
          "type": "address"
        }
      ],
      "stateMutability": "view",
      "type": "function"
    },
    {
      "inputs": [
        {
          "internalType": "address",
          "name": "owner",
          "type": "address"
        },
        {
          "internalType": "address",
          "name": "operator",
          "type": "address"
        }
      ],
      "name": "isApprovedForAll",
      "outputs": [
        {
          "internalType": "bool",
          "name": "",
          "type": "bool"
        }
      ],
      "stateMutability": "view",
      "type": "function"
    },
    {
      "inputs": [
        {
          "internalType": "string",
          "name": "svg",
          "type": "string"
        }
      ],
      "name": "mint",
      "outputs": [],
      "stateMutability": "nonpayable",
      "type": "function"
    },
    {
      "inputs": [],
      "name": "name",
      "outputs": [
        {
          "internalType": "string",
          "name": "",
          "type": "string"
        }
      ],
      "stateMutability": "view",
      "type": "function"
    },
    {
      "inputs": [],
      "name": "owner",
      "outputs": [
        {
          "internalType": "address",
          "name": "",
          "type": "address"
        }
      ],
      "stateMutability": "view",
      "type": "function"
    },
    {
      "inputs": [
        {
          "internalType": "uint256",
          "name": "tokenId",
          "type": "uint256"
        }
      ],
      "name": "ownerOf",
      "outputs": [
        {
          "internalType": "address",
          "name": "",
          "type": "address"
        }
      ],
      "stateMutability": "view",
      "type": "function"
    },
    {
      "inputs": [],
      "name": "renounceOwnership",
      "outputs": [],
      "stateMutability": "nonpayable",
      "type": "function"
    },
    {
      "inputs": [
        {
          "internalType": "address",
          "name": "from",
          "type": "address"
        },
        {
          "internalType": "address",
          "name": "to",
          "type": "address"
        },
        {
          "internalType": "uint256",
          "name": "tokenId",
          "type": "uint256"
        }
      ],
      "name": "safeTransferFrom",
      "outputs": [],
      "stateMutability": "nonpayable",
      "type": "function"
    },
    {
      "inputs": [
        {
          "internalType": "address",
          "name": "from",
          "type": "address"
        },
        {
          "internalType": "address",
          "name": "to",
          "type": "address"
        },
        {
          "internalType": "uint256",
          "name": "tokenId",
          "type": "uint256"
        },
        {
          "internalType": "bytes",
          "name": "data",
          "type": "bytes"
        }
      ],
      "name": "safeTransferFrom",
      "outputs": [],
      "stateMutability": "nonpayable",
      "type": "function"
    },
    {
      "inputs": [
        {
          "internalType": "address",
          "name": "operator",
          "type": "address"
        },
        {
          "internalType": "bool",
          "name": "approved",
          "type": "bool"
        }
      ],
      "name": "setApprovalForAll",
      "outputs": [],
      "stateMutability": "nonpayable",
      "type": "function"
    },
    {
      "inputs": [
        {
          "internalType": "bytes4",
          "name": "interfaceId",
          "type": "bytes4"
        }
      ],
      "name": "supportsInterface",
      "outputs": [
        {
          "internalType": "bool",
          "name": "",
          "type": "bool"
        }
      ],
      "stateMutability": "view",
      "type": "function"
    },
    {
      "inputs": [
        {
          "internalType": "string",
          "name": "svg",
          "type": "string"
        }
      ],
      "name": "svgToImageURI",
      "outputs": [
        {
          "internalType": "string",
          "name": "",
          "type": "string"
        }
      ],
      "stateMutability": "pure",
      "type": "function"
    },
    {
      "inputs": [],
      "name": "symbol",
      "outputs": [
        {
          "internalType": "string",
          "name": "",
          "type": "string"
        }
      ],
      "stateMutability": "view",
      "type": "function"
    },
    {
      "inputs": [
        {
          "internalType": "uint256",
          "name": "tokenId",
          "type": "uint256"
        }
      ],
      "name": "tokenURI",
      "outputs": [
        {
          "internalType": "string",
          "name": "",
          "type": "string"
        }
      ],
      "stateMutability": "view",
      "type": "function"
    },
    {
      "inputs": [
        {
          "internalType": "address",
          "name": "from",
          "type": "address"
        },
        {
          "internalType": "address",
          "name": "to",
          "type": "address"
        },
        {
          "internalType": "uint256",
          "name": "tokenId",
          "type": "uint256"
        }
      ],
      "name": "transferFrom",
      "outputs": [],
      "stateMutability": "nonpayable",
      "type": "function"
    },
    {
      "inputs": [
        {
          "internalType": "address",
          "name": "newOwner",
          "type": "address"
        }
      ],
      "name": "transferOwnership",
      "outputs": [],
      "stateMutability": "nonpayable",
      "type": "function"
    }
  ],
  "bytecode": "0x60806040523480156200001157600080fd5b50336040518060400160405280600881526020017f436861696e4e46540000000000000000000000000000000000000000000000008152506040518060400160405280600381526020017f4f4e430000000000000000000000000000000000000000000000000000000000815250816000908162000090919062000472565b508060019081620000a2919062000472565b505050600073ffffffffffffffffffffffffffffffffffffffff168173ffffffffffffffffffffffffffffffffffffffff16036200011a5760006040517f1e4fbdf70000000000000000000000000000000000000000000000000000000081526004016200011191906200059e565b60405180910390fd5b6200012b816200013260201b60201c565b50620005bb565b6000600760009054906101000a900473ffffffffffffffffffffffffffffffffffffffff16905081600760006101000a81548173ffffffffffffffffffffffffffffffffffffffff021916908373ffffffffffffffffffffffffffffffffffffffff1602179055508173ffffffffffffffffffffffffffffffffffffffff168173ffffffffffffffffffffffffffffffffffffffff167f8be0079c531659141344cd1fd0a4f28419497f9722a3daafe3b4186f6b6457e060405160405180910390a35050565b600081519050919050565b7f4e487b7100000000000000000000000000000000000000000000000000000000600052604160045260246000fd5b7f4e487b7100000000000000000000000000000000000000000000000000000000600052602260045260246000fd5b600060028204905060018216806200027a57607f821691505b60208210810362000290576200028f62000232565b5b50919050565b60008190508160005260206000209050919050565b60006020601f8301049050919050565b600082821b905092915050565b600060088302620002fa7fffffffffffffffffffffffffffffffffffffffffffffffffffffffffffffffff82620002bb565b620003068683620002bb565b95508019841693508086168417925050509392505050565b6000819050919050565b6000819050919050565b6000620003536200034d62000347846200031e565b62000328565b6200031e565b9050919050565b6000819050919050565b6200036f8362000332565b620003876200037e826200035a565b848454620002c8565b825550505050565b600090565b6200039e6200038f565b620003ab81848462000364565b505050565b5b81811015620003d357620003c760008262000394565b600181019050620003b1565b5050565b601f8211156200042257620003ec8162000296565b620003f784620002ab565b8101602085101562000407578190505b6200041f6200041685620002ab565b830182620003b0565b50505b505050565b600082821c905092915050565b6000620004476000198460080262000427565b1980831691505092915050565b600062000462838362000434565b9150826002028217905092915050565b6200047d82620001f8565b67ffffffffffffffff81111562000499576200049862000203565b5b620004a5825462000261565b620004b2828285620003d7565b600060209050601f831160018114620004ea5760008415620004d5578287015190505b620004e1858262000454565b86555062000551565b601f198416620004fa8662000296565b60005b828110156200052457848901518255600182019150602085019450602081019050620004fd565b8683101562000544578489015162000540601f89168262000434565b8355505b6001600288020188555050505b505050505050565b600073ffffffffffffffffffffffffffffffffffffffff82169050919050565b6000620005868262000559565b9050919050565b620005988162000579565b82525050565b6000602082019050620005b560008301846200058d565b92915050565b612bd480620005cb6000396000f3fe608060405234801561001057600080fd5b50600436106101215760003560e01c8063715018a6116100ad578063b88d4fde11610071578063b88d4fde1461031a578063c87b56dd14610336578063d85d3d2714610366578063e985e9c514610382578063f2fde38b146103b257610121565b8063715018a61461028857806371aee193146102925780638da5cb5b146102c257806395d89b41146102e0578063a22cb465146102fe57610121565b806323b872dd116100f457806323b872dd146101c057806330d871c6146101dc57806342842e0e1461020c5780636352211e1461022857806370a082311461025857610121565b806301ffc9a71461012657806306fdde0314610156578063081812fc14610174578063095ea7b3146101a4575b600080fd5b610140600480360381019061013b9190611dd9565b6103ce565b60405161014d9190611e21565b60405180910390f35b61015e61042f565b60405161016b9190611ecc565b60405180910390f35b61018e60048036038101906101899190611f24565b6104c1565b60405161019b9190611f92565b60405180910390f35b6101be60048036038101906101b99190611fd9565b6104dd565b005b6101da60048036038101906101d59190612019565b6104f3565b005b6101f660048036038101906101f191906121a1565b6105f5565b6040516102039190611ecc565b60405180910390f35b61022660048036038101906102219190612019565b610669565b005b610242600480360381019061023d9190611f24565b610689565b60405161024f9190611f92565b60405180910390f35b610272600480360381019061026d91906121ea565b61069b565b60405161027f9190612226565b60405180910390f35b610290610755565b005b6102ac60048036038101906102a791906121a1565b610769565b6040516102b99190611ecc565b60405180910390f35b6102ca6107b9565b6040516102d79190611f92565b60405180910390f35b6102e86107e3565b6040516102f59190611ecc565b60405180910390f35b6103186004803603810190610313919061226d565b610875565b005b610334600480360381019061032f919061234e565b61088b565b005b610350600480360381019061034b9190611f24565b6108a8565b60405161035d9190611ecc565b60405180910390f35b610380600480360381019061037b91906121a1565b6109bb565b005b61039c600480360381019061039791906123d1565b610a4d565b6040516103a99190611e21565b60405180910390f35b6103cc60048036038101906103c791906121ea565b610ae1565b005b6000634906490660e01b7bffffffffffffffffffffffffffffffffffffffffffffffffffffffff1916827bffffffffffffffffffffffffffffffffffffffffffffffffffffffff19161480610428575061042782610b67565b5b9050919050565b60606000805461043e90612440565b80601f016020809104026020016040519081016040528092919081815260200182805461046a90612440565b80156104b75780601f1061048c576101008083540402835291602001916104b7565b820191906000526020600020905b81548152906001019060200180831161049a57829003601f168201915b5050505050905090565b60006104cc82610c49565b506104d682610cd1565b9050919050565b6104ef82826104ea610d0e565b610d16565b5050565b600073ffffffffffffffffffffffffffffffffffffffff168273ffffffffffffffffffffffffffffffffffffffff16036105655760006040517f64a0ae9200000000000000000000000000000000000000000000000000000000815260040161055c9190611f92565b60405180910390fd5b60006105798383610574610d0e565b610d28565b90508373ffffffffffffffffffffffffffffffffffffffff168173ffffffffffffffffffffffffffffffffffffffff16146105ef578382826040517f64283d7b0000000000000000000000000000000000000000000000000000000081526004016105e693929190612471565b60405180910390fd5b50505050565b606060006040518060400160405280601a81526020017f646174613a696d6167652f7376672b786d6c3b6261736536342c0000000000008152509050600061063c84610f42565b905081816040516020016106519291906124e4565b60405160208183030381529060405292505050919050565b6106848383836040518060200160405280600081525061088b565b505050565b600061069482610c49565b9050919050565b60008073ffffffffffffffffffffffffffffffffffffffff168273ffffffffffffffffffffffffffffffffffffffff160361070e5760006040517f89c62b640000000000000000000000000000000000000000000000000000000081526004016107059190611f92565b60405180910390fd5b600360008373ffffffffffffffffffffffffffffffffffffffff1673ffffffffffffffffffffffffffffffffffffffff168152602001908152602001600020549050919050565b61075d6110d9565b6107676000611160565b565b60606107938260405160200161077f91906125ec565b604051602081830303815290604052610f42565b6040516020016107a39190612665565b6040516020818303038152906040529050919050565b6000600760009054906101000a900473ffffffffffffffffffffffffffffffffffffffff16905090565b6060600180546107f290612440565b80601f016020809104026020016040519081016040528092919081815260200182805461081e90612440565b801561086b5780601f106108405761010080835404028352916020019161086b565b820191906000526020600020905b81548152906001019060200180831161084e57829003601f168201915b5050505050905090565b610887610880610d0e565b8383611226565b5050565b6108968484846104f3565b6108a284848484611395565b50505050565b60606108b382610c49565b5060006006600084815260200190815260200160002080546108d490612440565b80601f016020809104026020016040519081016040528092919081815260200182805461090090612440565b801561094d5780601f106109225761010080835404028352916020019161094d565b820191906000526020600020905b81548152906001019060200180831161093057829003601f168201915b50505050509050600061095e61154c565b905060008151036109735781925050506109b6565b6000825111156109a85780826040516020016109909291906124e4565b604051602081830303815290604052925050506109b6565b6109b184611563565b925050505b919050565b6109c36110d9565b60006109ce826105f5565b905060006109db82610769565b9050600860008154809291906109f0906126b6565b919050555060006008549050610a0633826115cc565b610a1081836115ea565b7f176b02bb2d12439ff7a20b59f402cca16c76f50508b13ef3166a600eb719354a81604051610a3f9190612226565b60405180910390a150505050565b6000600560008473ffffffffffffffffffffffffffffffffffffffff1673ffffffffffffffffffffffffffffffffffffffff16815260200190815260200160002060008373ffffffffffffffffffffffffffffffffffffffff1673ffffffffffffffffffffffffffffffffffffffff16815260200190815260200160002060009054906101000a900460ff16905092915050565b610ae96110d9565b600073ffffffffffffffffffffffffffffffffffffffff168173ffffffffffffffffffffffffffffffffffffffff1603610b5b5760006040517f1e4fbdf7000000000000000000000000000000000000000000000000000000008152600401610b529190611f92565b60405180910390fd5b610b6481611160565b50565b60007f80ac58cd000000000000000000000000000000000000000000000000000000007bffffffffffffffffffffffffffffffffffffffffffffffffffffffff1916827bffffffffffffffffffffffffffffffffffffffffffffffffffffffff19161480610c3257507f5b5e139f000000000000000000000000000000000000000000000000000000007bffffffffffffffffffffffffffffffffffffffffffffffffffffffff1916827bffffffffffffffffffffffffffffffffffffffffffffffffffffffff1916145b80610c425750610c4182611646565b5b9050919050565b600080610c55836116b0565b9050600073ffffffffffffffffffffffffffffffffffffffff168173ffffffffffffffffffffffffffffffffffffffff1603610cc857826040517f7e273289000000000000000000000000000000000000000000000000000000008152600401610cbf9190612226565b60405180910390fd5b80915050919050565b60006004600083815260200190815260200160002060009054906101000a900473ffffffffffffffffffffffffffffffffffffffff169050919050565b600033905090565b610d2383838360016116ed565b505050565b600080610d34846116b0565b9050600073ffffffffffffffffffffffffffffffffffffffff168373ffffffffffffffffffffffffffffffffffffffff1614610d7657610d758184866118b2565b5b600073ffffffffffffffffffffffffffffffffffffffff168173ffffffffffffffffffffffffffffffffffffffff1614610e0757610db86000856000806116ed565b6001600360008373ffffffffffffffffffffffffffffffffffffffff1673ffffffffffffffffffffffffffffffffffffffff168152602001908152602001600020600082825403925050819055505b600073ffffffffffffffffffffffffffffffffffffffff168573ffffffffffffffffffffffffffffffffffffffff1614610e8a576001600360008773ffffffffffffffffffffffffffffffffffffffff1673ffffffffffffffffffffffffffffffffffffffff168152602001908152602001600020600082825401925050819055505b846002600086815260200190815260200160002060006101000a81548173ffffffffffffffffffffffffffffffffffffffff021916908373ffffffffffffffffffffffffffffffffffffffff160217905550838573ffffffffffffffffffffffffffffffffffffffff168273ffffffffffffffffffffffffffffffffffffffff167fddf252ad1be2c89b69c2b068fc378daa952ba7f163c4a11628f55a4df523b3ef60405160405180910390a4809150509392505050565b606060008251905060008103610f6a57604051806020016040528060008152509150506110d4565b60006003600283610f7b91906126fe565b610f859190612761565b6004610f919190612792565b90506000602082610fa291906126fe565b67ffffffffffffffff811115610fbb57610fba612076565b5b6040519080825280601f01601f191660200182016040528015610fed5781602001600182028036833780820191505090505b5090506000604051806060016040528060408152602001612b5f604091399050600181016020830160005b868110156110915760038101905062ffffff818a015116603f8160121c168401518060081b905060ff603f83600c1c1686015116810190508060081b905060ff603f8360061c1686015116810190508060081b905060ff603f831686015116810190508060e01b90508084526004840193505050611018565b5060038606600181146110ab57600281146110bb576110c6565b613d3d60f01b60028303526110c6565b603d60f81b60018303525b508484525050819450505050505b919050565b6110e1610d0e565b73ffffffffffffffffffffffffffffffffffffffff166110ff6107b9565b73ffffffffffffffffffffffffffffffffffffffff161461115e57611122610d0e565b6040517f118cdaa70000000000000000000000000000000000000000000000000000000081526004016111559190611f92565b60405180910390fd5b565b6000600760009054906101000a900473ffffffffffffffffffffffffffffffffffffffff16905081600760006101000a81548173ffffffffffffffffffffffffffffffffffffffff021916908373ffffffffffffffffffffffffffffffffffffffff1602179055508173ffffffffffffffffffffffffffffffffffffffff168173ffffffffffffffffffffffffffffffffffffffff167f8be0079c531659141344cd1fd0a4f28419497f9722a3daafe3b4186f6b6457e060405160405180910390a35050565b600073ffffffffffffffffffffffffffffffffffffffff168273ffffffffffffffffffffffffffffffffffffffff160361129757816040517f5b08ba1800000000000000000000000000000000000000000000000000000000815260040161128e9190611f92565b60405180910390fd5b80600560008573ffffffffffffffffffffffffffffffffffffffff1673ffffffffffffffffffffffffffffffffffffffff16815260200190815260200160002060008473ffffffffffffffffffffffffffffffffffffffff1673ffffffffffffffffffffffffffffffffffffffff16815260200190815260200160002060006101000a81548160ff0219169083151502179055508173ffffffffffffffffffffffffffffffffffffffff168373ffffffffffffffffffffffffffffffffffffffff167f17307eab39ab6107e8899845ad3d59bd9653f200f220920489ca2b5937696c31836040516113889190611e21565b60405180910390a3505050565b60008373ffffffffffffffffffffffffffffffffffffffff163b1115611546578273ffffffffffffffffffffffffffffffffffffffff1663150b7a026113d9610d0e565b8685856040518563ffffffff1660e01b81526004016113fb9493929190612829565b6020604051808303816000875af192505050801561143757506040513d601f19601f82011682018060405250810190611434919061288a565b60015b6114bb573d8060008114611467576040519150601f19603f3d011682016040523d82523d6000602084013e61146c565b606091505b5060008151036114b357836040517f64a0ae920000000000000000000000000000000000000000000000000000000081526004016114aa9190611f92565b60405180910390fd5b805181602001fd5b63150b7a0260e01b7bffffffffffffffffffffffffffffffffffffffffffffffffffffffff1916817bffffffffffffffffffffffffffffffffffffffffffffffffffffffff19161461154457836040517f64a0ae9200000000000000000000000000000000000000000000000000000000815260040161153b9190611f92565b60405180910390fd5b505b50505050565b606060405180602001604052806000815250905090565b606061156e82610c49565b50600061157961154c565b9050600081511161159957604051806020016040528060008152506115c4565b806115a384611976565b6040516020016115b49291906124e4565b6040516020818303038152906040525b915050919050565b6115e6828260405180602001604052806000815250611a44565b5050565b8060066000848152602001908152602001600020908161160a9190612a63565b507ff8e1a15aba9398e019f0b49df1a4fde98ee17ae345cb5f6b5e2c27f5033e8ce78260405161163a9190612226565b60405180910390a15050565b60007f01ffc9a7000000000000000000000000000000000000000000000000000000007bffffffffffffffffffffffffffffffffffffffffffffffffffffffff1916827bffffffffffffffffffffffffffffffffffffffffffffffffffffffff1916149050919050565b60006002600083815260200190815260200160002060009054906101000a900473ffffffffffffffffffffffffffffffffffffffff169050919050565b80806117265750600073ffffffffffffffffffffffffffffffffffffffff168273ffffffffffffffffffffffffffffffffffffffff1614155b1561185a57600061173684610c49565b9050600073ffffffffffffffffffffffffffffffffffffffff168373ffffffffffffffffffffffffffffffffffffffff16141580156117a157508273ffffffffffffffffffffffffffffffffffffffff168173ffffffffffffffffffffffffffffffffffffffff1614155b80156117b457506117b28184610a4d565b155b156117f657826040517fa9fbf51f0000000000000000000000000000000000000000000000000000000081526004016117ed9190611f92565b60405180910390fd5b811561185857838573ffffffffffffffffffffffffffffffffffffffff168273ffffffffffffffffffffffffffffffffffffffff167f8c5be1e5ebec7d5bd14f71427d1e84f3dd0314c0f7b2291e5b200ac8c7c3b92560405160405180910390a45b505b836004600085815260200190815260200160002060006101000a81548173ffffffffffffffffffffffffffffffffffffffff021916908373ffffffffffffffffffffffffffffffffffffffff16021790555050505050565b6118bd838383611a60565b61197157600073ffffffffffffffffffffffffffffffffffffffff168373ffffffffffffffffffffffffffffffffffffffff160361193257806040517f7e2732890000000000000000000000000000000000000000000000000000000081526004016119299190612226565b60405180910390fd5b81816040517f177e802f000000000000000000000000000000000000000000000000000000008152600401611968929190612b35565b60405180910390fd5b505050565b60606000600161198584611b21565b01905060008167ffffffffffffffff8111156119a4576119a3612076565b5b6040519080825280601f01601f1916602001820160405280156119d65781602001600182028036833780820191505090505b509050600082602001820190505b600115611a39578080600190039150507f3031323334353637383961626364656600000000000000000000000000000000600a86061a8153600a8581611a2d57611a2c612732565b5b049450600085036119e4575b819350505050919050565b611a4e8383611c74565b611a5b6000848484611395565b505050565b60008073ffffffffffffffffffffffffffffffffffffffff168373ffffffffffffffffffffffffffffffffffffffff1614158015611b1857508273ffffffffffffffffffffffffffffffffffffffff168473ffffffffffffffffffffffffffffffffffffffff161480611ad95750611ad88484610a4d565b5b80611b1757508273ffffffffffffffffffffffffffffffffffffffff16611aff83610cd1565b73ffffffffffffffffffffffffffffffffffffffff16145b5b90509392505050565b600080600090507a184f03e93ff9f4daa797ed6e38ed64bf6a1f0100000000000000008310611b7f577a184f03e93ff9f4daa797ed6e38ed64bf6a1f0100000000000000008381611b7557611b74612732565b5b0492506040810190505b6d04ee2d6d415b85acef81000000008310611bbc576d04ee2d6d415b85acef81000000008381611bb257611bb1612732565b5b0492506020810190505b662386f26fc100008310611beb57662386f26fc100008381611be157611be0612732565b5b0492506010810190505b6305f5e1008310611c14576305f5e1008381611c0a57611c09612732565b5b0492506008810190505b6127108310611c39576127108381611c2f57611c2e612732565b5b0492506004810190505b60648310611c5c5760648381611c5257611c51612732565b5b0492506002810190505b600a8310611c6b576001810190505b80915050919050565b600073ffffffffffffffffffffffffffffffffffffffff168273ffffffffffffffffffffffffffffffffffffffff1603611ce65760006040517f64a0ae92000000000000000000000000000000000000000000000000000000008152600401611cdd9190611f92565b60405180910390fd5b6000611cf483836000610d28565b9050600073ffffffffffffffffffffffffffffffffffffffff168173ffffffffffffffffffffffffffffffffffffffff1614611d685760006040517f73c6ac6e000000000000000000000000000000000000000000000000000000008152600401611d5f9190611f92565b60405180910390fd5b505050565b6000604051905090565b600080fd5b600080fd5b60007fffffffff0000000000000000000000000000000000000000000000000000000082169050919050565b611db681611d81565b8114611dc157600080fd5b50565b600081359050611dd381611dad565b92915050565b600060208284031215611def57611dee611d77565b5b6000611dfd84828501611dc4565b91505092915050565b60008115159050919050565b611e1b81611e06565b82525050565b6000602082019050611e366000830184611e12565b92915050565b600081519050919050565b600082825260208201905092915050565b60005b83811015611e76578082015181840152602081019050611e5b565b60008484015250505050565b6000601f19601f8301169050919050565b6000611e9e82611e3c565b611ea88185611e47565b9350611eb8818560208601611e58565b611ec181611e82565b840191505092915050565b60006020820190508181036000830152611ee68184611e93565b905092915050565b6000819050919050565b611f0181611eee565b8114611f0c57600080fd5b50565b600081359050611f1e81611ef8565b92915050565b600060208284031215611f3a57611f39611d77565b5b6000611f4884828501611f0f565b91505092915050565b600073ffffffffffffffffffffffffffffffffffffffff82169050919050565b6000611f7c82611f51565b9050919050565b611f8c81611f71565b82525050565b6000602082019050611fa76000830184611f83565b92915050565b611fb681611f71565b8114611fc157600080fd5b50565b600081359050611fd381611fad565b92915050565b60008060408385031215611ff057611fef611d77565b5b6000611ffe85828601611fc4565b925050602061200f85828601611f0f565b9150509250929050565b60008060006060848603121561203257612031611d77565b5b600061204086828701611fc4565b935050602061205186828701611fc4565b925050604061206286828701611f0f565b9150509250925092565b600080fd5b600080fd5b7f4e487b7100000000000000000000000000000000000000000000000000000000600052604160045260246000fd5b6120ae82611e82565b810181811067ffffffffffffffff821117156120cd576120cc612076565b5b80604052505050565b60006120e0611d6d565b90506120ec82826120a5565b919050565b600067ffffffffffffffff82111561210c5761210b612076565b5b61211582611e82565b9050602081019050919050565b82818337600083830152505050565b600061214461213f846120f1565b6120d6565b9050828152602081018484840111156121605761215f612071565b5b61216b848285612122565b509392505050565b600082601f8301126121885761218761206c565b5b8135612198848260208601612131565b91505092915050565b6000602082840312156121b7576121b6611d77565b5b600082013567ffffffffffffffff8111156121d5576121d4611d7c565b5b6121e184828501612173565b91505092915050565b600060208284031215612200576121ff611d77565b5b600061220e84828501611fc4565b91505092915050565b61222081611eee565b82525050565b600060208201905061223b6000830184612217565b92915050565b61224a81611e06565b811461225557600080fd5b50565b60008135905061226781612241565b92915050565b6000806040838503121561228457612283611d77565b5b600061229285828601611fc4565b92505060206122a385828601612258565b9150509250929050565b600067ffffffffffffffff8211156122c8576122c7612076565b5b6122d182611e82565b9050602081019050919050565b60006122f16122ec846122ad565b6120d6565b90508281526020810184848401111561230d5761230c612071565b5b612318848285612122565b509392505050565b600082601f8301126123355761233461206c565b5b81356123458482602086016122de565b91505092915050565b6000806000806080858703121561236857612367611d77565b5b600061237687828801611fc4565b945050602061238787828801611fc4565b935050604061239887828801611f0f565b925050606085013567ffffffffffffffff8111156123b9576123b8611d7c565b5b6123c587828801612320565b91505092959194509250565b600080604083850312156123e8576123e7611d77565b5b60006123f685828601611fc4565b925050602061240785828601611fc4565b9150509250929050565b7f4e487b7100000000000000000000000000000000000000000000000000000000600052602260045260246000fd5b6000600282049050600182168061245857607f821691505b60208210810361246b5761246a612411565b5b50919050565b60006060820190506124866000830186611f83565b6124936020830185612217565b6124a06040830184611f83565b949350505050565b600081905092915050565b60006124be82611e3c565b6124c881856124a8565b93506124d8818560208601611e58565b80840191505092915050565b60006124f082856124b3565b91506124fc82846124b3565b91508190509392505050565b7f7b226e616d65223a20224c434d204f4e2d434841494e4544222c20226465736360008201527f72697074696f6e223a2022412073696d706c6520535647206261736564206f6e60208201527f2d636861696e204e4654222c2022696d616765223a2200000000000000000000604082015250565b600061258a6056836124a8565b915061259582612508565b605682019050919050565b7f227d000000000000000000000000000000000000000000000000000000000000600082015250565b60006125d66002836124a8565b91506125e1826125a0565b600282019050919050565b60006125f78261257d565b915061260382846124b3565b915061260e826125c9565b915081905092915050565b7f646174613a6170706c69636174696f6e2f6a736f6e3b6261736536342c000000600082015250565b600061264f601d836124a8565b915061265a82612619565b601d82019050919050565b600061267082612642565b915061267c82846124b3565b915081905092915050565b7f4e487b7100000000000000000000000000000000000000000000000000000000600052601160045260246000fd5b60006126c182611eee565b91507fffffffffffffffffffffffffffffffffffffffffffffffffffffffffffffffff82036126f3576126f2612687565b5b600182019050919050565b600061270982611eee565b915061271483611eee565b925082820190508082111561272c5761272b612687565b5b92915050565b7f4e487b7100000000000000000000000000000000000000000000000000000000600052601260045260246000fd5b600061276c82611eee565b915061277783611eee565b92508261278757612786612732565b5b828204905092915050565b600061279d82611eee565b91506127a883611eee565b92508282026127b681611eee565b915082820484148315176127cd576127cc612687565b5b5092915050565b600081519050919050565b600082825260208201905092915050565b60006127fb826127d4565b61280581856127df565b9350612815818560208601611e58565b61281e81611e82565b840191505092915050565b600060808201905061283e6000830187611f83565b61284b6020830186611f83565b6128586040830185612217565b818103606083015261286a81846127f0565b905095945050505050565b60008151905061288481611dad565b92915050565b6000602082840312156128a05761289f611d77565b5b60006128ae84828501612875565b91505092915050565b60008190508160005260206000209050919050565b60006020601f8301049050919050565b600082821b905092915050565b6000600883026129197fffffffffffffffffffffffffffffffffffffffffffffffffffffffffffffffff826128dc565b61292386836128dc565b95508019841693508086168417925050509392505050565b6000819050919050565b600061296061295b61295684611eee565b61293b565b611eee565b9050919050565b6000819050919050565b61297a83612945565b61298e61298682612967565b8484546128e9565b825550505050565b600090565b6129a3612996565b6129ae818484612971565b505050565b5b818110156129d2576129c760008261299b565b6001810190506129b4565b5050565b601f821115612a17576129e8816128b7565b6129f1846128cc565b81016020851015612a00578190505b612a14612a0c856128cc565b8301826129b3565b50505b505050565b600082821c905092915050565b6000612a3a60001984600802612a1c565b1980831691505092915050565b6000612a538383612a29565b9150826002028217905092915050565b612a6c82611e3c565b67ffffffffffffffff811115612a8557612a84612076565b5b612a8f8254612440565b612a9a8282856129d6565b600060209050601f831160018114612acd5760008415612abb578287015190505b612ac58582612a47565b865550612b2d565b601f198416612adb866128b7565b60005b82811015612b0357848901518255600182019150602085019450602081019050612ade565b86831015612b205784890151612b1c601f891682612a29565b8355505b6001600288020188555050505b505050505050565b6000604082019050612b4a6000830185611f83565b612b576020830184612217565b939250505056fe4142434445464748494a4b4c4d4e4f505152535455565758595a6162636465666768696a6b6c6d6e6f707172737475767778797a303132333435363738392b2fa2646970667358221220effa57c398d9ef2198806bd89e2bc9612bf3ba0307881ca79399b5cc73bd647264736f6c63430008180033",
  "linkReferences": {},
  "deployedLinkReferences": {}
}